{
    "_format": "hh-sol-artifact-1",
    "contractName": "Domains",
    "sourceName": "contracts/Domains.sol",
    "abi": [
        {
            "inputs": [
                {
                    "internalType": "string",
                    "name": "_tld",
                    "type": "string"
                }
            ],
            "stateMutability": "payable",
            "type": "constructor"
        },
        {
            "anonymous": false,
            "inputs": [
                {
                    "indexed": true,
                    "internalType": "address",
                    "name": "owner",
                    "type": "address"
                },
                {
                    "indexed": true,
                    "internalType": "address",
                    "name": "approved",
                    "type": "address"
                },
                {
                    "indexed": true,
                    "internalType": "uint256",
                    "name": "tokenId",
                    "type": "uint256"
                }
            ],
            "name": "Approval",
            "type": "event"
        },
        {
            "anonymous": false,
            "inputs": [
                {
                    "indexed": true,
                    "internalType": "address",
                    "name": "owner",
                    "type": "address"
                },
                {
                    "indexed": true,
                    "internalType": "address",
                    "name": "operator",
                    "type": "address"
                },
                {
                    "indexed": false,
                    "internalType": "bool",
                    "name": "approved",
                    "type": "bool"
                }
            ],
            "name": "ApprovalForAll",
            "type": "event"
        },
        {
            "anonymous": false,
            "inputs": [
                {
                    "indexed": true,
                    "internalType": "address",
                    "name": "from",
                    "type": "address"
                },
                {
                    "indexed": true,
                    "internalType": "address",
                    "name": "to",
                    "type": "address"
                },
                {
                    "indexed": true,
                    "internalType": "uint256",
                    "name": "tokenId",
                    "type": "uint256"
                }
            ],
            "name": "Transfer",
            "type": "event"
        },
        {
            "inputs": [
                {
                    "internalType": "address",
                    "name": "to",
                    "type": "address"
                },
                {
                    "internalType": "uint256",
                    "name": "tokenId",
                    "type": "uint256"
                }
            ],
            "name": "approve",
            "outputs": [],
            "stateMutability": "nonpayable",
            "type": "function"
        },
        {
            "inputs": [
                {
                    "internalType": "address",
                    "name": "owner",
                    "type": "address"
                }
            ],
            "name": "balanceOf",
            "outputs": [
                {
                    "internalType": "uint256",
                    "name": "",
                    "type": "uint256"
                }
            ],
            "stateMutability": "view",
            "type": "function"
        },
        {
            "inputs": [
                {
                    "internalType": "string",
                    "name": "",
                    "type": "string"
                }
            ],
            "name": "domains",
            "outputs": [
                {
                    "internalType": "address",
                    "name": "",
                    "type": "address"
                }
            ],
            "stateMutability": "view",
            "type": "function"
        },
        {
            "inputs": [
                {
                    "internalType": "string",
                    "name": "name",
                    "type": "string"
                }
            ],
            "name": "getAddress",
            "outputs": [
                {
                    "internalType": "address",
                    "name": "",
                    "type": "address"
                }
            ],
            "stateMutability": "view",
            "type": "function"
        },
        {
            "inputs": [
                {
                    "internalType": "uint256",
                    "name": "tokenId",
                    "type": "uint256"
                }
            ],
            "name": "getApproved",
            "outputs": [
                {
                    "internalType": "address",
                    "name": "",
                    "type": "address"
                }
            ],
            "stateMutability": "view",
            "type": "function"
        },
        {
            "inputs": [
                {
                    "internalType": "string",
                    "name": "name",
                    "type": "string"
                }
            ],
            "name": "getRecord",
            "outputs": [
                {
                    "internalType": "string",
                    "name": "",
                    "type": "string"
                }
            ],
            "stateMutability": "view",
            "type": "function"
        },
        {
            "inputs": [
                {
                    "internalType": "address",
                    "name": "owner",
                    "type": "address"
                },
                {
                    "internalType": "address",
                    "name": "operator",
                    "type": "address"
                }
            ],
            "name": "isApprovedForAll",
            "outputs": [
                {
                    "internalType": "bool",
                    "name": "",
                    "type": "bool"
                }
            ],
            "stateMutability": "view",
            "type": "function"
        },
        {
            "inputs": [],
            "name": "name",
            "outputs": [
                {
                    "internalType": "string",
                    "name": "",
                    "type": "string"
                }
            ],
            "stateMutability": "view",
            "type": "function"
        },
        {
            "inputs": [
                {
                    "internalType": "uint256",
                    "name": "tokenId",
                    "type": "uint256"
                }
            ],
            "name": "ownerOf",
            "outputs": [
                {
                    "internalType": "address",
                    "name": "",
                    "type": "address"
                }
            ],
            "stateMutability": "view",
            "type": "function"
        },
        {
            "inputs": [
                {
                    "internalType": "string",
                    "name": "name",
                    "type": "string"
                }
            ],
            "name": "price",
            "outputs": [
                {
                    "internalType": "uint256",
                    "name": "",
                    "type": "uint256"
                }
            ],
            "stateMutability": "pure",
            "type": "function"
        },
        {
            "inputs": [
                {
                    "internalType": "string",
                    "name": "",
                    "type": "string"
                }
            ],
            "name": "records",
            "outputs": [
                {
                    "internalType": "string",
                    "name": "",
                    "type": "string"
                }
            ],
            "stateMutability": "view",
            "type": "function"
        },
        {
            "inputs": [
                {
                    "internalType": "string",
                    "name": "name",
                    "type": "string"
                }
            ],
            "name": "register",
            "outputs": [],
            "stateMutability": "payable",
            "type": "function"
        },
        {
            "inputs": [
                {
                    "internalType": "address",
                    "name": "from",
                    "type": "address"
                },
                {
                    "internalType": "address",
                    "name": "to",
                    "type": "address"
                },
                {
                    "internalType": "uint256",
                    "name": "tokenId",
                    "type": "uint256"
                }
            ],
            "name": "safeTransferFrom",
            "outputs": [],
            "stateMutability": "nonpayable",
            "type": "function"
        },
        {
            "inputs": [
                {
                    "internalType": "address",
                    "name": "from",
                    "type": "address"
                },
                {
                    "internalType": "address",
                    "name": "to",
                    "type": "address"
                },
                {
                    "internalType": "uint256",
                    "name": "tokenId",
                    "type": "uint256"
                },
                {
                    "internalType": "bytes",
                    "name": "_data",
                    "type": "bytes"
                }
            ],
            "name": "safeTransferFrom",
            "outputs": [],
            "stateMutability": "nonpayable",
            "type": "function"
        },
        {
            "inputs": [
                {
                    "internalType": "address",
                    "name": "operator",
                    "type": "address"
                },
                {
                    "internalType": "bool",
                    "name": "approved",
                    "type": "bool"
                }
            ],
            "name": "setApprovalForAll",
            "outputs": [],
            "stateMutability": "nonpayable",
            "type": "function"
        },
        {
            "inputs": [
                {
                    "internalType": "string",
                    "name": "name",
                    "type": "string"
                },
                {
                    "internalType": "string",
                    "name": "record",
                    "type": "string"
                }
            ],
            "name": "setRecord",
            "outputs": [],
            "stateMutability": "nonpayable",
            "type": "function"
        },
        {
            "inputs": [
                {
                    "internalType": "bytes4",
                    "name": "interfaceId",
                    "type": "bytes4"
                }
            ],
            "name": "supportsInterface",
            "outputs": [
                {
                    "internalType": "bool",
                    "name": "",
                    "type": "bool"
                }
            ],
            "stateMutability": "view",
            "type": "function"
        },
        {
            "inputs": [],
            "name": "symbol",
            "outputs": [
                {
                    "internalType": "string",
                    "name": "",
                    "type": "string"
                }
            ],
            "stateMutability": "view",
            "type": "function"
        },
        {
            "inputs": [],
            "name": "tld",
            "outputs": [
                {
                    "internalType": "string",
                    "name": "",
                    "type": "string"
                }
            ],
            "stateMutability": "view",
            "type": "function"
        },
        {
            "inputs": [
                {
                    "internalType": "uint256",
                    "name": "tokenId",
                    "type": "uint256"
                }
            ],
            "name": "tokenURI",
            "outputs": [
                {
                    "internalType": "string",
                    "name": "",
                    "type": "string"
                }
            ],
            "stateMutability": "view",
            "type": "function"
        },
        {
            "inputs": [
                {
                    "internalType": "address",
                    "name": "from",
                    "type": "address"
                },
                {
                    "internalType": "address",
                    "name": "to",
                    "type": "address"
                },
                {
                    "internalType": "uint256",
                    "name": "tokenId",
                    "type": "uint256"
                }
            ],
            "name": "transferFrom",
            "outputs": [],
            "stateMutability": "nonpayable",
            "type": "function"
        }
    ],
    "bytecode": "0x6080604052604051806108a0016040528061086b81526020016200490a61086b9139600990805190602001906200003892919062000287565b506040518060400160405280600d81526020017f3c2f746578743e3c2f7376673e00000000000000000000000000000000000000815250600a90805190602001906200008692919062000287565b5060405162005175380380620051758339818101604052810190620000ac9190620003a9565b6040518060400160405280601281526020017f4e696e6a61204e616d65205365727669636500000000000000000000000000008152506040518060400160405280600381526020017f4e4e53000000000000000000000000000000000000000000000000000000000081525081600090805190602001906200013092919062000287565b5080600190805190602001906200014992919062000287565b50505080600890805190602001906200016492919062000287565b50620001b16040518060400160405280601881526020017f2573206e616d652073657276696365206465706c6f796564000000000000000081525082620001b860201b6200150a1760201c565b50620005f6565b6200025a8282604051602401620001d19291906200042f565b6040516020818303038152906040527f4b5c4277000000000000000000000000000000000000000000000000000000007bffffffffffffffffffffffffffffffffffffffffffffffffffffffff19166020820180517bffffffffffffffffffffffffffffffffffffffffffffffffffffffff83818316178352505050506200025e60201b60201c565b5050565b60008151905060006a636f6e736f6c652e6c6f679050602083016000808483855afa5050505050565b82805462000295906200051b565b90600052602060002090601f016020900481019282620002b9576000855562000305565b82601f10620002d457805160ff191683800117855562000305565b8280016001018555821562000305579182015b8281111562000304578251825591602001919060010190620002e7565b5b50905062000314919062000318565b5090565b5b808211156200033357600081600090555060010162000319565b5090565b60006200034e620003488462000493565b6200046a565b9050828152602081018484840111156200036757600080fd5b62000374848285620004e5565b509392505050565b600082601f8301126200038e57600080fd5b8151620003a084826020860162000337565b91505092915050565b600060208284031215620003bc57600080fd5b600082015167ffffffffffffffff811115620003d757600080fd5b620003e5848285016200037c565b91505092915050565b6000620003fb82620004c9565b620004078185620004d4565b935062000419818560208601620004e5565b6200042481620005e5565b840191505092915050565b600060408201905081810360008301526200044b8185620003ee565b90508181036020830152620004618184620003ee565b90509392505050565b60006200047662000489565b905062000484828262000551565b919050565b6000604051905090565b600067ffffffffffffffff821115620004b157620004b0620005b6565b5b620004bc82620005e5565b9050602081019050919050565b600081519050919050565b600082825260208201905092915050565b60005b8381101562000505578082015181840152602081019050620004e8565b8381111562000515576000848401525b50505050565b600060028204905060018216806200053457607f821691505b602082108114156200054b576200054a62000587565b5b50919050565b6200055c82620005e5565b810181811067ffffffffffffffff821117156200057e576200057d620005b6565b5b80604052505050565b7f4e487b7100000000000000000000000000000000000000000000000000000000600052602260045260246000fd5b7f4e487b7100000000000000000000000000000000000000000000000000000000600052604160045260246000fd5b6000601f19601f8301169050919050565b61430480620006066000396000f3fe60806040526004361061012a5760003560e01c80636352211e116100ab578063bf40fac11161006f578063bf40fac114610428578063c1880a9814610465578063c87b56dd1461048e578063e985e9c5146104cb578063f2c298be14610508578063fe2c6198146105245761012a565b80636352211e1461033157806370a082311461036e57806395d89b41146103ab578063a22cb465146103d6578063b88d4fde146103ff5761012a565b806323b872dd116100f257806323b872dd1461023a57806326449235146102635780632d551432146102a057806342842e0e146102cb578063541e771d146102f45761012a565b806301ffc9a71461012f57806306fdde031461016c578063081812fc14610197578063095ea7b3146101d457806311dd8845146101fd575b600080fd5b34801561013b57600080fd5b5061015660048036038101906101519190612cb5565b610561565b6040516101639190613449565b60405180910390f35b34801561017857600080fd5b50610181610643565b60405161018e9190613464565b60405180910390f35b3480156101a357600080fd5b506101be60048036038101906101b99190612e02565b6106d5565b6040516101cb91906133e2565b60405180910390f35b3480156101e057600080fd5b506101fb60048036038101906101f69190612c79565b61075a565b005b34801561020957600080fd5b50610224600480360381019061021f9190612d07565b610872565b6040516102319190613464565b60405180910390f35b34801561024657600080fd5b50610261600480360381019061025c9190612b73565b610925565b005b34801561026f57600080fd5b5061028a60048036038101906102859190612dc1565b610985565b60405161029791906133e2565b60405180910390f35b3480156102ac57600080fd5b506102b56109ce565b6040516102c29190613464565b60405180910390f35b3480156102d757600080fd5b506102f260048036038101906102ed9190612b73565b610a5c565b005b34801561030057600080fd5b5061031b60048036038101906103169190612dc1565b610a7c565b6040516103289190613464565b60405180910390f35b34801561033d57600080fd5b5061035860048036038101906103539190612e02565b610b32565b60405161036591906133e2565b60405180910390f35b34801561037a57600080fd5b5061039560048036038101906103909190612b0e565b610be4565b6040516103a29190613737565b60405180910390f35b3480156103b757600080fd5b506103c0610c9c565b6040516103cd9190613464565b60405180910390f35b3480156103e257600080fd5b506103fd60048036038101906103f89190612c3d565b610d2e565b005b34801561040b57600080fd5b5061042660048036038101906104219190612bc2565b610d44565b005b34801561043457600080fd5b5061044f600480360381019061044a9190612d07565b610da6565b60405161045c91906133e2565b60405180910390f35b34801561047157600080fd5b5061048c60048036038101906104879190612d4c565b610df1565b005b34801561049a57600080fd5b506104b560048036038101906104b09190612e02565b610e9f565b6040516104c29190613464565b60405180910390f35b3480156104d757600080fd5b506104f260048036038101906104ed9190612b37565b610ff1565b6040516104ff9190613449565b60405180910390f35b610522600480360381019061051d9190612d07565b611085565b005b34801561053057600080fd5b5061054b60048036038101906105469190612d07565b611466565b6040516105589190613737565b60405180910390f35b60007f80ac58cd000000000000000000000000000000000000000000000000000000007bffffffffffffffffffffffffffffffffffffffffffffffffffffffff1916827bffffffffffffffffffffffffffffffffffffffffffffffffffffffff1916148061062c57507f5b5e139f000000000000000000000000000000000000000000000000000000007bffffffffffffffffffffffffffffffffffffffffffffffffffffffff1916827bffffffffffffffffffffffffffffffffffffffffffffffffffffffff1916145b8061063c575061063b826115a6565b5b9050919050565b606060008054610652906139fc565b80601f016020809104026020016040519081016040528092919081815260200182805461067e906139fc565b80156106cb5780601f106106a0576101008083540402835291602001916106cb565b820191906000526020600020905b8154815290600101906020018083116106ae57829003601f168201915b5050505050905090565b60006106e082611610565b61071f576040517f08c379a000000000000000000000000000000000000000000000000000000000815260040161071690613697565b60405180910390fd5b6004600083815260200190815260200160002060009054906101000a900473ffffffffffffffffffffffffffffffffffffffff169050919050565b600061076582610b32565b90508073ffffffffffffffffffffffffffffffffffffffff168373ffffffffffffffffffffffffffffffffffffffff1614156107d6576040517f08c379a00000000000000000000000000000000000000000000000000000000081526004016107cd906136f7565b60405180910390fd5b8073ffffffffffffffffffffffffffffffffffffffff166107f561167c565b73ffffffffffffffffffffffffffffffffffffffff16148061082457506108238161081e61167c565b610ff1565b5b610863576040517f08c379a000000000000000000000000000000000000000000000000000000000815260040161085a906135d7565b60405180910390fd5b61086d8383611684565b505050565b6060600c83836040516108869291906132c4565b9081526020016040518091039020805461089f906139fc565b80601f01602080910402602001604051908101604052809291908181526020018280546108cb906139fc565b80156109185780601f106108ed57610100808354040283529160200191610918565b820191906000526020600020905b8154815290600101906020018083116108fb57829003601f168201915b5050505050905092915050565b61093661093061167c565b8261173d565b610975576040517f08c379a000000000000000000000000000000000000000000000000000000000815260040161096c90613717565b60405180910390fd5b61098083838361181b565b505050565b600b818051602081018201805184825260208301602085012081835280955050505050506000915054906101000a900473ffffffffffffffffffffffffffffffffffffffff1681565b600880546109db906139fc565b80601f0160208091040260200160405190810160405280929190818152602001828054610a07906139fc565b8015610a545780601f10610a2957610100808354040283529160200191610a54565b820191906000526020600020905b815481529060010190602001808311610a3757829003601f168201915b505050505081565b610a7783838360405180602001604052806000815250610d44565b505050565b600c818051602081018201805184825260208301602085012081835280955050505050506000915090508054610ab1906139fc565b80601f0160208091040260200160405190810160405280929190818152602001828054610add906139fc565b8015610b2a5780601f10610aff57610100808354040283529160200191610b2a565b820191906000526020600020905b815481529060010190602001808311610b0d57829003601f168201915b505050505081565b6000806002600084815260200190815260200160002060009054906101000a900473ffffffffffffffffffffffffffffffffffffffff169050600073ffffffffffffffffffffffffffffffffffffffff168173ffffffffffffffffffffffffffffffffffffffff161415610bdb576040517f08c379a0000000000000000000000000000000000000000000000000000000008152600401610bd290613617565b60405180910390fd5b80915050919050565b60008073ffffffffffffffffffffffffffffffffffffffff168273ffffffffffffffffffffffffffffffffffffffff161415610c55576040517f08c379a0000000000000000000000000000000000000000000000000000000008152600401610c4c906135f7565b60405180910390fd5b600360008373ffffffffffffffffffffffffffffffffffffffff1673ffffffffffffffffffffffffffffffffffffffff168152602001908152602001600020549050919050565b606060018054610cab906139fc565b80601f0160208091040260200160405190810160405280929190818152602001828054610cd7906139fc565b8015610d245780601f10610cf957610100808354040283529160200191610d24565b820191906000526020600020905b815481529060010190602001808311610d0757829003601f168201915b5050505050905090565b610d40610d3961167c565b8383611a82565b5050565b610d55610d4f61167c565b8361173d565b610d94576040517f08c379a0000000000000000000000000000000000000000000000000000000008152600401610d8b90613717565b60405180910390fd5b610da084848484611bef565b50505050565b6000600b8383604051610dba9291906132c4565b908152602001604051809103902060009054906101000a900473ffffffffffffffffffffffffffffffffffffffff16905092915050565b3373ffffffffffffffffffffffffffffffffffffffff16600b8585604051610e1a9291906132c4565b908152602001604051809103902060009054906101000a900473ffffffffffffffffffffffffffffffffffffffff1673ffffffffffffffffffffffffffffffffffffffff1614610e6957600080fd5b8181600c8686604051610e7d9291906132c4565b90815260200160405180910390209190610e98929190612862565b5050505050565b6060610eaa82611610565b610ee9576040517f08c379a0000000000000000000000000000000000000000000000000000000008152600401610ee090613677565b60405180910390fd5b6000600660008481526020019081526020016000208054610f09906139fc565b80601f0160208091040260200160405190810160405280929190818152602001828054610f35906139fc565b8015610f825780601f10610f5757610100808354040283529160200191610f82565b820191906000526020600020905b815481529060010190602001808311610f6557829003601f168201915b505050505090506000610f93611c4b565b9050600081511415610fa9578192505050610fec565b600082511115610fde578082604051602001610fc692919061330e565b60405160208183030381529060405292505050610fec565b610fe784611c62565b925050505b919050565b6000600560008473ffffffffffffffffffffffffffffffffffffffff1673ffffffffffffffffffffffffffffffffffffffff16815260200190815260200160002060008373ffffffffffffffffffffffffffffffffffffffff1673ffffffffffffffffffffffffffffffffffffffff16815260200190815260200160002060009054906101000a900460ff16905092915050565b600073ffffffffffffffffffffffffffffffffffffffff16600b83836040516110af9291906132c4565b908152602001604051809103902060009054906101000a900473ffffffffffffffffffffffffffffffffffffffff1673ffffffffffffffffffffffffffffffffffffffff16146110fe57600080fd5b600061110a8383611466565b90508034101561114f576040517f08c379a0000000000000000000000000000000000000000000000000000000008152600401611146906136d7565b60405180910390fd5b600083836008604051602001611167939291906132dd565b60405160208183030381529060405290506000600982600a60405160200161119193929190613332565b604051602081830303815290604052905060006111ae6007611d09565b905060006111ff87878080601f016020809104026020016040519081016040528093929190818152602001838380828437600081840152601f19601f82011690508083019250505050505050611d17565b9050600061120c82611ef2565b90506113006040518060600160405280603181526020016142256031913989898080601f016020809104026020016040519081016040528093929190818152602001838380828437600081840152601f19601f820116905080830192505050505050506008805461127c906139fc565b80601f01602080910402602001604051908101604052809291908181526020018280546112a8906139fc565b80156112f55780601f106112ca576101008083540402835291602001916112f5565b820191906000526020600020905b8154815290600101906020018083116112d857829003601f168201915b50505050508661209f565b60006113368661130f87612141565b8460405160200161132293929190613363565b604051602081830303815290604052612141565b905060008160405160200161134b91906133c0565b604051602081830303815290604052905061137d6040518060600160405280603981526020016141ec603991396122ff565b6113bc6040518060400160405280600e81526020017f46696e616c20746f6b656e5552490000000000000000000000000000000000008152508261150a565b6113dd604051806060016040528060398152602001614256603991396122ff565b6113e73386612398565b6113f185826123b6565b33600b8b8b6040516114049291906132c4565b908152602001604051809103902060006101000a81548173ffffffffffffffffffffffffffffffffffffffff021916908373ffffffffffffffffffffffffffffffffffffffff16021790555061145a600761242a565b50505050505050505050565b6000806114b684848080601f016020809104026020016040519081016040528093929190818152602001838380828437600081840152601f19601f82011690508083019250505050505050611d17565b9050600081116114c557600080fd5b60038114156114df5767016345785d8a0000915050611504565b60048114156114f85766b1a2bc2ec50000915050611504565b662386f26fc100009150505b92915050565b6115a28282604051602401611520929190613486565b6040516020818303038152906040527f4b5c4277000000000000000000000000000000000000000000000000000000007bffffffffffffffffffffffffffffffffffffffffffffffffffffffff19166020820180517bffffffffffffffffffffffffffffffffffffffffffffffffffffffff8381831617835250505050612440565b5050565b60007f01ffc9a7000000000000000000000000000000000000000000000000000000007bffffffffffffffffffffffffffffffffffffffffffffffffffffffff1916827bffffffffffffffffffffffffffffffffffffffffffffffffffffffff1916149050919050565b60008073ffffffffffffffffffffffffffffffffffffffff166002600084815260200190815260200160002060009054906101000a900473ffffffffffffffffffffffffffffffffffffffff1673ffffffffffffffffffffffffffffffffffffffff1614159050919050565b600033905090565b816004600083815260200190815260200160002060006101000a81548173ffffffffffffffffffffffffffffffffffffffff021916908373ffffffffffffffffffffffffffffffffffffffff160217905550808273ffffffffffffffffffffffffffffffffffffffff166116f783610b32565b73ffffffffffffffffffffffffffffffffffffffff167f8c5be1e5ebec7d5bd14f71427d1e84f3dd0314c0f7b2291e5b200ac8c7c3b92560405160405180910390a45050565b600061174882611610565b611787576040517f08c379a000000000000000000000000000000000000000000000000000000000815260040161177e906135b7565b60405180910390fd5b600061179283610b32565b90508073ffffffffffffffffffffffffffffffffffffffff168473ffffffffffffffffffffffffffffffffffffffff16148061180157508373ffffffffffffffffffffffffffffffffffffffff166117e9846106d5565b73ffffffffffffffffffffffffffffffffffffffff16145b8061181257506118118185610ff1565b5b91505092915050565b8273ffffffffffffffffffffffffffffffffffffffff1661183b82610b32565b73ffffffffffffffffffffffffffffffffffffffff1614611891576040517f08c379a000000000000000000000000000000000000000000000000000000000815260040161188890613537565b60405180910390fd5b600073ffffffffffffffffffffffffffffffffffffffff168273ffffffffffffffffffffffffffffffffffffffff161415611901576040517f08c379a00000000000000000000000000000000000000000000000000000000081526004016118f890613577565b60405180910390fd5b61190c838383612469565b611917600082611684565b6001600360008573ffffffffffffffffffffffffffffffffffffffff1673ffffffffffffffffffffffffffffffffffffffff16815260200190815260200160002060008282546119679190613912565b925050819055506001600360008473ffffffffffffffffffffffffffffffffffffffff1673ffffffffffffffffffffffffffffffffffffffff16815260200190815260200160002060008282546119be9190613831565b92505081905550816002600083815260200190815260200160002060006101000a81548173ffffffffffffffffffffffffffffffffffffffff021916908373ffffffffffffffffffffffffffffffffffffffff160217905550808273ffffffffffffffffffffffffffffffffffffffff168473ffffffffffffffffffffffffffffffffffffffff167fddf252ad1be2c89b69c2b068fc378daa952ba7f163c4a11628f55a4df523b3ef60405160405180910390a4611a7d83838361246e565b505050565b8173ffffffffffffffffffffffffffffffffffffffff168373ffffffffffffffffffffffffffffffffffffffff161415611af1576040517f08c379a0000000000000000000000000000000000000000000000000000000008152600401611ae890613597565b60405180910390fd5b80600560008573ffffffffffffffffffffffffffffffffffffffff1673ffffffffffffffffffffffffffffffffffffffff16815260200190815260200160002060008473ffffffffffffffffffffffffffffffffffffffff1673ffffffffffffffffffffffffffffffffffffffff16815260200190815260200160002060006101000a81548160ff0219169083151502179055508173ffffffffffffffffffffffffffffffffffffffff168373ffffffffffffffffffffffffffffffffffffffff167f17307eab39ab6107e8899845ad3d59bd9653f200f220920489ca2b5937696c3183604051611be29190613449565b60405180910390a3505050565b611bfa84848461181b565b611c0684848484612473565b611c45576040517f08c379a0000000000000000000000000000000000000000000000000000000008152600401611c3c90613517565b60405180910390fd5b50505050565b606060405180602001604052806000815250905090565b6060611c6d82611610565b611cac576040517f08c379a0000000000000000000000000000000000000000000000000000000008152600401611ca3906136b7565b60405180910390fd5b6000611cb6611c4b565b90506000815111611cd65760405180602001604052806000815250611d01565b80611ce084611ef2565b604051602001611cf192919061330e565b6040516020818303038152906040525b915050919050565b600081600001549050919050565b60008060008084519050600092505b80821015611ee7576000858381518110611d69577f4e487b7100000000000000000000000000000000000000000000000000000000600052603260045260246000fd5b602001015160f81c60f81b9050608060f81b817effffffffffffffffffffffffffffffffffffffffffffffffffffffffffffff19161015611db857600183611db19190613831565b9250611ed3565b60e060f81b817effffffffffffffffffffffffffffffffffffffffffffffffffffffffffffff19161015611dfa57600283611df39190613831565b9250611ed2565b60f060f81b817effffffffffffffffffffffffffffffffffffffffffffffffffffffffffffff19161015611e3c57600383611e359190613831565b9250611ed1565b60f8801b817effffffffffffffffffffffffffffffffffffffffffffffffffffffffffffff19161015611e7d57600483611e769190613831565b9250611ed0565b60fc60f81b817effffffffffffffffffffffffffffffffffffffffffffffffffffffffffffff19161015611ebf57600583611eb89190613831565b9250611ecf565b600683611ecc9190613831565b92505b5b5b5b5b508280611edf90613a5f565b935050611d26565b829350505050919050565b60606000821415611f3a576040518060400160405280600181526020017f3000000000000000000000000000000000000000000000000000000000000000815250905061209a565b600082905060005b60008214611f6c578080611f5590613a5f565b915050600a82611f659190613887565b9150611f42565b60008167ffffffffffffffff811115611fae577f4e487b7100000000000000000000000000000000000000000000000000000000600052604160045260246000fd5b6040519080825280601f01601f191660200182016040528015611fe05781602001600182028036833780820191505090505b5090505b6000851461209357600182611ff99190613912565b9150600a856120089190613aa8565b60306120149190613831565b60f81b818381518110612050577f4e487b7100000000000000000000000000000000000000000000000000000000600052603260045260246000fd5b60200101907effffffffffffffffffffffffffffffffffffffffffffffffffffffffffffff1916908160001a905350600a8561208c9190613887565b9450611fe4565b8093505050505b919050565b61213b848484846040516024016120b994939291906134bd565b6040516020818303038152906040527f9fd009f5000000000000000000000000000000000000000000000000000000007bffffffffffffffffffffffffffffffffffffffffffffffffffffffff19166020820180517bffffffffffffffffffffffffffffffffffffffffffffffffffffffff8381831617835250505050612440565b50505050565b6060600082519050600081141561216a57604051806020016040528060008152509150506122fa565b6000600360028361217b9190613831565b6121859190613887565b600461219191906138b8565b905060006020826121a29190613831565b67ffffffffffffffff8111156121e1577f4e487b7100000000000000000000000000000000000000000000000000000000600052604160045260246000fd5b6040519080825280601f01601f1916602001820160405280156122135781602001600182028036833780820191505090505b509050600060405180606001604052806040815260200161428f604091399050600181016020830160005b868110156122b75760038101905062ffffff818a015116603f8160121c168401518060081b905060ff603f83600c1c1686015116810190508060081b905060ff603f8360061c1686015116810190508060081b905060ff603f831686015116810190508060e01b9050808452600484019350505061223e565b5060038606600181146122d157600281146122e1576122ec565b613d3d60f01b60028303526122ec565b603d60f81b60018303525b508484525050819450505050505b919050565b612395816040516024016123139190613464565b6040516020818303038152906040527f41304fac000000000000000000000000000000000000000000000000000000007bffffffffffffffffffffffffffffffffffffffffffffffffffffffff19166020820180517bffffffffffffffffffffffffffffffffffffffffffffffffffffffff8381831617835250505050612440565b50565b6123b282826040518060200160405280600081525061260a565b5050565b6123bf82611610565b6123fe576040517f08c379a00000000000000000000000000000000000000000000000000000000081526004016123f590613637565b60405180910390fd5b806006600084815260200190815260200160002090805190602001906124259291906128e8565b505050565b6001816000016000828254019250508190555050565b60008151905060006a636f6e736f6c652e6c6f679050602083016000808483855afa5050505050565b505050565b505050565b60006124948473ffffffffffffffffffffffffffffffffffffffff16612665565b156125fd578373ffffffffffffffffffffffffffffffffffffffff1663150b7a026124bd61167c565b8786866040518563ffffffff1660e01b81526004016124df94939291906133fd565b602060405180830381600087803b1580156124f957600080fd5b505af192505050801561252a57506040513d601f19601f820116820180604052508101906125279190612cde565b60015b6125ad573d806000811461255a576040519150601f19603f3d011682016040523d82523d6000602084013e61255f565b606091505b506000815114156125a5576040517f08c379a000000000000000000000000000000000000000000000000000000000815260040161259c90613517565b60405180910390fd5b805181602001fd5b63150b7a0260e01b7bffffffffffffffffffffffffffffffffffffffffffffffffffffffff1916817bffffffffffffffffffffffffffffffffffffffffffffffffffffffff191614915050612602565b600190505b949350505050565b6126148383612688565b6126216000848484612473565b612660576040517f08c379a000000000000000000000000000000000000000000000000000000000815260040161265790613517565b60405180910390fd5b505050565b6000808273ffffffffffffffffffffffffffffffffffffffff163b119050919050565b600073ffffffffffffffffffffffffffffffffffffffff168273ffffffffffffffffffffffffffffffffffffffff1614156126f8576040517f08c379a00000000000000000000000000000000000000000000000000000000081526004016126ef90613657565b60405180910390fd5b61270181611610565b15612741576040517f08c379a000000000000000000000000000000000000000000000000000000000815260040161273890613557565b60405180910390fd5b61274d60008383612469565b6001600360008473ffffffffffffffffffffffffffffffffffffffff1673ffffffffffffffffffffffffffffffffffffffff168152602001908152602001600020600082825461279d9190613831565b92505081905550816002600083815260200190815260200160002060006101000a81548173ffffffffffffffffffffffffffffffffffffffff021916908373ffffffffffffffffffffffffffffffffffffffff160217905550808273ffffffffffffffffffffffffffffffffffffffff16600073ffffffffffffffffffffffffffffffffffffffff167fddf252ad1be2c89b69c2b068fc378daa952ba7f163c4a11628f55a4df523b3ef60405160405180910390a461285e6000838361246e565b5050565b82805461286e906139fc565b90600052602060002090601f01602090048101928261289057600085556128d7565b82601f106128a957803560ff19168380011785556128d7565b828001600101855582156128d7579182015b828111156128d65782358255916020019190600101906128bb565b5b5090506128e4919061296e565b5090565b8280546128f4906139fc565b90600052602060002090601f016020900481019282612916576000855561295d565b82601f1061292f57805160ff191683800117855561295d565b8280016001018555821561295d579182015b8281111561295c578251825591602001919060010190612941565b5b50905061296a919061296e565b5090565b5b8082111561298757600081600090555060010161296f565b5090565b600061299e61299984613777565b613752565b9050828152602081018484840111156129b657600080fd5b6129c18482856139ba565b509392505050565b60006129dc6129d7846137a8565b613752565b9050828152602081018484840111156129f457600080fd5b6129ff8482856139ba565b509392505050565b600081359050612a168161418f565b92915050565b600081359050612a2b816141a6565b92915050565b600081359050612a40816141bd565b92915050565b600081519050612a55816141bd565b92915050565b600082601f830112612a6c57600080fd5b8135612a7c84826020860161298b565b91505092915050565b60008083601f840112612a9757600080fd5b8235905067ffffffffffffffff811115612ab057600080fd5b602083019150836001820283011115612ac857600080fd5b9250929050565b600082601f830112612ae057600080fd5b8135612af08482602086016129c9565b91505092915050565b600081359050612b08816141d4565b92915050565b600060208284031215612b2057600080fd5b6000612b2e84828501612a07565b91505092915050565b60008060408385031215612b4a57600080fd5b6000612b5885828601612a07565b9250506020612b6985828601612a07565b9150509250929050565b600080600060608486031215612b8857600080fd5b6000612b9686828701612a07565b9350506020612ba786828701612a07565b9250506040612bb886828701612af9565b9150509250925092565b60008060008060808587031215612bd857600080fd5b6000612be687828801612a07565b9450506020612bf787828801612a07565b9350506040612c0887828801612af9565b925050606085013567ffffffffffffffff811115612c2557600080fd5b612c3187828801612a5b565b91505092959194509250565b60008060408385031215612c5057600080fd5b6000612c5e85828601612a07565b9250506020612c6f85828601612a1c565b9150509250929050565b60008060408385031215612c8c57600080fd5b6000612c9a85828601612a07565b9250506020612cab85828601612af9565b9150509250929050565b600060208284031215612cc757600080fd5b6000612cd584828501612a31565b91505092915050565b600060208284031215612cf057600080fd5b6000612cfe84828501612a46565b91505092915050565b60008060208385031215612d1a57600080fd5b600083013567ffffffffffffffff811115612d3457600080fd5b612d4085828601612a85565b92509250509250929050565b60008060008060408587031215612d6257600080fd5b600085013567ffffffffffffffff811115612d7c57600080fd5b612d8887828801612a85565b9450945050602085013567ffffffffffffffff811115612da757600080fd5b612db387828801612a85565b925092505092959194509250565b600060208284031215612dd357600080fd5b600082013567ffffffffffffffff811115612ded57600080fd5b612df984828501612acf565b91505092915050565b600060208284031215612e1457600080fd5b6000612e2284828501612af9565b91505092915050565b612e3481613946565b82525050565b612e4381613958565b82525050565b6000612e54826137ee565b612e5e8185613804565b9350612e6e8185602086016139c9565b612e7781613b95565b840191505092915050565b6000612e8e8385613826565b9350612e9b8385846139ba565b82840190509392505050565b6000612eb2826137f9565b612ebc8185613815565b9350612ecc8185602086016139c9565b612ed581613b95565b840191505092915050565b6000612eeb826137f9565b612ef58185613826565b9350612f058185602086016139c9565b80840191505092915050565b60008154612f1e816139fc565b612f288186613826565b94506001821660008114612f435760018114612f5457612f87565b60ff19831686528186019350612f87565b612f5d856137d9565b60005b83811015612f7f57815481890152600182019150602081019050612f60565b838801955050505b50505092915050565b6000612f9d603283613815565b9150612fa882613ba6565b604082019050919050565b6000612fc0602583613815565b9150612fcb82613bf5565b604082019050919050565b6000612fe3601c83613815565b9150612fee82613c44565b602082019050919050565b6000613006605c83613826565b915061301182613c6d565b605c82019050919050565b6000613029602483613815565b915061303482613ce2565b604082019050919050565b600061304c601983613815565b915061305782613d31565b602082019050919050565b600061306f602c83613815565b915061307a82613d5a565b604082019050919050565b6000613092603883613815565b915061309d82613da9565b604082019050919050565b60006130b5600183613826565b91506130c082613df8565b600182019050919050565b60006130d8602a83613815565b91506130e382613e21565b604082019050919050565b60006130fb602983613815565b915061310682613e70565b604082019050919050565b600061311e602e83613815565b915061312982613ebf565b604082019050919050565b6000613141600283613826565b915061314c82613f0e565b600282019050919050565b6000613164602083613815565b915061316f82613f37565b602082019050919050565b6000613187603183613815565b915061319282613f60565b604082019050919050565b60006131aa602c83613815565b91506131b582613faf565b604082019050919050565b60006131cd602f83613815565b91506131d882613ffe565b604082019050919050565b60006131f0601583613815565b91506131fb8261404d565b602082019050919050565b6000613213600a83613826565b915061321e82614076565b600a82019050919050565b6000613236602183613815565b91506132418261409f565b604082019050919050565b6000613259601d83613826565b9150613264826140ee565b601d82019050919050565b600061327c600c83613826565b915061328782614117565b600c82019050919050565b600061329f603183613815565b91506132aa82614140565b604082019050919050565b6132be816139b0565b82525050565b60006132d1828486612e82565b91508190509392505050565b60006132ea828587612e82565b91506132f5826130a8565b91506133018284612f11565b9150819050949350505050565b600061331a8285612ee0565b91506133268284612ee0565b91508190509392505050565b600061333e8286612f11565b915061334a8285612ee0565b91506133568284612f11565b9150819050949350505050565b600061336e82613206565b915061337a8286612ee0565b915061338582612ff9565b91506133918285612ee0565b915061339c8261326f565b91506133a88284612ee0565b91506133b382613134565b9150819050949350505050565b60006133cb8261324c565b91506133d78284612ee0565b915081905092915050565b60006020820190506133f76000830184612e2b565b92915050565b60006080820190506134126000830187612e2b565b61341f6020830186612e2b565b61342c60408301856132b5565b818103606083015261343e8184612e49565b905095945050505050565b600060208201905061345e6000830184612e3a565b92915050565b6000602082019050818103600083015261347e8184612ea7565b905092915050565b600060408201905081810360008301526134a08185612ea7565b905081810360208301526134b48184612ea7565b90509392505050565b600060808201905081810360008301526134d78187612ea7565b905081810360208301526134eb8186612ea7565b905081810360408301526134ff8185612ea7565b905061350e60608301846132b5565b95945050505050565b6000602082019050818103600083015261353081612f90565b9050919050565b6000602082019050818103600083015261355081612fb3565b9050919050565b6000602082019050818103600083015261357081612fd6565b9050919050565b600060208201905081810360008301526135908161301c565b9050919050565b600060208201905081810360008301526135b08161303f565b9050919050565b600060208201905081810360008301526135d081613062565b9050919050565b600060208201905081810360008301526135f081613085565b9050919050565b60006020820190508181036000830152613610816130cb565b9050919050565b60006020820190508181036000830152613630816130ee565b9050919050565b6000602082019050818103600083015261365081613111565b9050919050565b6000602082019050818103600083015261367081613157565b9050919050565b600060208201905081810360008301526136908161317a565b9050919050565b600060208201905081810360008301526136b08161319d565b9050919050565b600060208201905081810360008301526136d0816131c0565b9050919050565b600060208201905081810360008301526136f0816131e3565b9050919050565b6000602082019050818103600083015261371081613229565b9050919050565b6000602082019050818103600083015261373081613292565b9050919050565b600060208201905061374c60008301846132b5565b92915050565b600061375c61376d565b90506137688282613a2e565b919050565b6000604051905090565b600067ffffffffffffffff82111561379257613791613b66565b5b61379b82613b95565b9050602081019050919050565b600067ffffffffffffffff8211156137c3576137c2613b66565b5b6137cc82613b95565b9050602081019050919050565b60008190508160005260206000209050919050565b600081519050919050565b600081519050919050565b600082825260208201905092915050565b600082825260208201905092915050565b600081905092915050565b600061383c826139b0565b9150613847836139b0565b9250827fffffffffffffffffffffffffffffffffffffffffffffffffffffffffffffffff0382111561387c5761387b613ad9565b5b828201905092915050565b6000613892826139b0565b915061389d836139b0565b9250826138ad576138ac613b08565b5b828204905092915050565b60006138c3826139b0565b91506138ce836139b0565b9250817fffffffffffffffffffffffffffffffffffffffffffffffffffffffffffffffff048311821515161561390757613906613ad9565b5b828202905092915050565b600061391d826139b0565b9150613928836139b0565b92508282101561393b5761393a613ad9565b5b828203905092915050565b600061395182613990565b9050919050565b60008115159050919050565b60007fffffffff0000000000000000000000000000000000000000000000000000000082169050919050565b600073ffffffffffffffffffffffffffffffffffffffff82169050919050565b6000819050919050565b82818337600083830152505050565b60005b838110156139e75780820151818401526020810190506139cc565b838111156139f6576000848401525b50505050565b60006002820490506001821680613a1457607f821691505b60208210811415613a2857613a27613b37565b5b50919050565b613a3782613b95565b810181811067ffffffffffffffff82111715613a5657613a55613b66565b5b80604052505050565b6000613a6a826139b0565b91507fffffffffffffffffffffffffffffffffffffffffffffffffffffffffffffffff821415613a9d57613a9c613ad9565b5b600182019050919050565b6000613ab3826139b0565b9150613abe836139b0565b925082613ace57613acd613b08565b5b828206905092915050565b7f4e487b7100000000000000000000000000000000000000000000000000000000600052601160045260246000fd5b7f4e487b7100000000000000000000000000000000000000000000000000000000600052601260045260246000fd5b7f4e487b7100000000000000000000000000000000000000000000000000000000600052602260045260246000fd5b7f4e487b7100000000000000000000000000000000000000000000000000000000600052604160045260246000fd5b6000601f19601f8301169050919050565b7f4552433732313a207472616e7366657220746f206e6f6e20455243373231526560008201527f63656976657220696d706c656d656e7465720000000000000000000000000000602082015250565b7f4552433732313a207472616e736665722066726f6d20696e636f72726563742060008201527f6f776e6572000000000000000000000000000000000000000000000000000000602082015250565b7f4552433732313a20746f6b656e20616c7265616479206d696e74656400000000600082015250565b7f222c20226465736372697074696f6e223a20224120646f6d61696e206f6e207460008201527f6865204e696e6a61206e616d652073657276696365222c2022696d616765223a60208201527f2022646174613a696d6167652f7376672b786d6c3b6261736536342c00000000604082015250565b7f4552433732313a207472616e7366657220746f20746865207a65726f2061646460008201527f7265737300000000000000000000000000000000000000000000000000000000602082015250565b7f4552433732313a20617070726f766520746f2063616c6c657200000000000000600082015250565b7f4552433732313a206f70657261746f7220717565727920666f72206e6f6e657860008201527f697374656e7420746f6b656e0000000000000000000000000000000000000000602082015250565b7f4552433732313a20617070726f76652063616c6c6572206973206e6f74206f7760008201527f6e6572206e6f7220617070726f76656420666f7220616c6c0000000000000000602082015250565b7f2e00000000000000000000000000000000000000000000000000000000000000600082015250565b7f4552433732313a2062616c616e636520717565727920666f7220746865207a6560008201527f726f206164647265737300000000000000000000000000000000000000000000602082015250565b7f4552433732313a206f776e657220717565727920666f72206e6f6e657869737460008201527f656e7420746f6b656e0000000000000000000000000000000000000000000000602082015250565b7f45524337323155524953746f726167653a2055524920736574206f66206e6f6e60008201527f6578697374656e7420746f6b656e000000000000000000000000000000000000602082015250565b7f227d000000000000000000000000000000000000000000000000000000000000600082015250565b7f4552433732313a206d696e7420746f20746865207a65726f2061646472657373600082015250565b7f45524337323155524953746f726167653a2055524920717565727920666f722060008201527f6e6f6e6578697374656e7420746f6b656e000000000000000000000000000000602082015250565b7f4552433732313a20617070726f76656420717565727920666f72206e6f6e657860008201527f697374656e7420746f6b656e0000000000000000000000000000000000000000602082015250565b7f4552433732314d657461646174613a2055524920717565727920666f72206e6f60008201527f6e6578697374656e7420746f6b656e0000000000000000000000000000000000602082015250565b7f6e6f7420656e6f756768204d6174696320706169640000000000000000000000600082015250565b7f7b226e616d65223a202200000000000000000000000000000000000000000000600082015250565b7f4552433732313a20617070726f76616c20746f2063757272656e74206f776e6560008201527f7200000000000000000000000000000000000000000000000000000000000000602082015250565b7f646174613a6170706c69636174696f6e2f6a736f6e3b6261736536342c000000600082015250565b7f222c226c656e677468223a220000000000000000000000000000000000000000600082015250565b7f4552433732313a207472616e736665722063616c6c6572206973206e6f74206f60008201527f776e6572206e6f7220617070726f766564000000000000000000000000000000602082015250565b61419881613946565b81146141a357600080fd5b50565b6141af81613958565b81146141ba57600080fd5b50565b6141c681613964565b81146141d157600080fd5b50565b6141dd816139b0565b81146141e857600080fd5b5056fe0a2d2d2d2d2d2d2d2d2d2d2d2d2d2d2d2d2d2d2d2d2d2d2d2d2d2d2d2d2d2d2d2d2d2d2d2d2d2d2d2d2d2d2d2d2d2d2d2d2d2d2d2d2d2d2d2d5265676973746572696e672025732e2573206f6e2074686520636f6e7472616374207769746820746f6b656e49442025642d2d2d2d2d2d2d2d2d2d2d2d2d2d2d2d2d2d2d2d2d2d2d2d2d2d2d2d2d2d2d2d2d2d2d2d2d2d2d2d2d2d2d2d2d2d2d2d2d2d2d2d2d2d2d2d0a4142434445464748494a4b4c4d4e4f505152535455565758595a6162636465666768696a6b6c6d6e6f707172737475767778797a303132333435363738392b2fa2646970667358221220585056285748017b13812a32a4677524641de54e9ce2ca099a4a1319b37ebddd64736f6c634300080400333c73766720786d6c6e733d22687474703a2f2f7777772e77332e6f72672f323030302f737667222077696474683d2232373022206865696768743d22323730222066696c6c3d226e6f6e65223e3c706174682066696c6c3d2275726c282342292220643d224d302030683237307632373048307a222f3e3c646566733e3c66696c7465722069643d22412220636f6c6f722d696e746572706f6c6174696f6e2d66696c746572733d2273524742222066696c746572556e6974733d227573657253706163654f6e55736522206865696768743d22323730222077696474683d22323730223e3c666544726f70536861646f772064783d2230222064793d22312220737464446576696174696f6e3d22322220666c6f6f642d6f7061636974793d222e323235222077696474683d223230302522206865696768743d2232303025222f3e3c2f66696c7465723e3c2f646566733e3c7061746820643d224d37322e3836332034322e393439632d2e3636382d2e3338372d312e3432362d2e35392d322e3139372d2e3539732d312e3532392e3230342d322e3139372e35396c2d31302e30383120362e3033322d362e383520332e3933342d31302e30383120362e303332632d2e3636382e3338372d312e3432362e35392d322e3139372e3539732d312e3532392d2e3230342d322e3139372d2e35396c2d382e3031332d342e37323161342e353220342e35322030203020312d312e3538392d312e363136632d2e3338342d2e3636352d2e3539342d312e3431382d2e3630382d322e313837762d392e3331632d2e3031332d2e3737352e3138352d312e3533382e3537322d322e32303861342e323520342e323520302030203120312e3632352d312e3539356c372e3838342d342e3539632e3636382d2e33383720312e3432362d2e353920322e3139372d2e353973312e3532392e32303420322e3139372e35396c372e38383420342e353961342e353220342e353220302030203120312e35383920312e363136632e3338342e3636352e35393420312e3431382e36303820322e31383776362e3033326c362e38352d342e303635762d362e303332632e3031332d2e3737352d2e3138352d312e3533382d2e3537322d322e32303861342e323520342e32352030203020302d312e3632352d312e3539354c34312e3435362032342e3539632d2e3636382d2e3338372d312e3432362d2e35392d322e3139372d2e3539732d312e3532392e3230342d322e3139372e35396c2d31342e38363420382e36353561342e323520342e32352030203020302d312e36323520312e353935632d2e3338372e36372d2e35383520312e3433342d2e35373220322e3230387631372e343431632d2e3031332e3737352e31383520312e3533382e35373220322e32303861342e323520342e323520302030203020312e36323520312e3539356c31342e38363420382e363535632e3636382e33383720312e3432362e353920322e3139372e353973312e3532392d2e32303420322e3139372d2e35396c31302e3038312d352e39303120362e38352d342e3036352031302e3038312d352e393031632e3636382d2e33383720312e3432362d2e353920322e3139372d2e353973312e3532392e32303420322e3139372e35396c372e38383420342e353961342e353220342e353220302030203120312e35383920312e363136632e3338342e3636352e35393420312e3431382e36303820322e31383776392e333131632e3031332e3737352d2e31383520312e3533382d2e35373220322e32303861342e323520342e32352030203020312d312e36323520312e3539356c2d372e38383420342e373231632d2e3636382e3338372d312e3432362e35392d322e3139372e3539732d312e3532392d2e3230342d322e3139372d2e35396c2d372e3838342d342e353961342e353220342e35322030203020312d312e3538392d312e363136632d2e3338352d2e3636352d2e3539342d312e3431382d2e3630382d322e313837762d362e3033326c2d362e383520342e30363576362e303332632d2e3031332e3737352e31383520312e3533382e35373220322e32303861342e323520342e323520302030203020312e36323520312e3539356c31342e38363420382e363535632e3636382e33383720312e3432362e353920322e3139372e353973312e3532392d2e32303420322e3139372d2e35396c31342e3836342d382e363535632e3635372d2e33393420312e3230342d2e393520312e3538392d312e363136732e3539342d312e3431382e3630392d322e3138375635352e353338632e3031332d2e3737352d2e3138352d312e3533382d2e3537322d322e32303861342e323520342e32352030203020302d312e3632352d312e3539356c2d31342e3939332d382e3738367a222066696c6c3d2223666666222f3e3c646566733e3c6c696e6561724772616469656e742069643d2242222078313d2230222079313d2230222078323d22323730222079323d2232373022206772616469656e74556e6974733d227573657253706163654f6e557365223e3c73746f702073746f702d636f6c6f723d2223636235656565222f3e3c73746f70206f66667365743d2231222073746f702d636f6c6f723d2223306364376534222073746f702d6f7061636974793d222e3939222f3e3c2f6c696e6561724772616469656e743e3c2f646566733e3c7465787420783d2233322e352220793d223233312220666f6e742d73697a653d223237222066696c6c3d2223666666222066696c7465723d2275726c282341292220666f6e742d66616d696c793d22506c7573204a616b617274612053616e732c44656a6156752053616e732c4e6f746f20436f6c6f7220456d6f6a692c4170706c6520436f6c6f7220456d6f6a692c73616e732d73657269662220666f6e742d7765696768743d22626f6c64223e",
    "linkReferences": {},
    "deployedLinkReferences": {}
}